:04000000020089323F
:01000B0032C2
:0100130032BA
:01001B0032B2
:030023000209C609
:03002B000209D1F6
:01003300329A
:01003B003292
:01004300328A
:01004B003282
:01005300327A
:01005B003272
:01006300326A
:01006B003262
:01007300325A
:01007B003252
:03008300020A303E
:1500E200750800E4F509F50A750BFF750CFFC200C20B02008695
:03008600020A5417
:2000F700758400758841758921758E18758DAF75840075C80475C91875CADC75CB0B75CC90
:20011700DC75CD0B75840275C80475C90275CA8D75CB34227584007598702275840075CFEC
:20013700E922758400759A4075F801759D7C2275840075E8802275840075D49C2275840046
:2001570075D1032275840F75A43575A6FF75A7FF75E10675E20475E3402275840F758C67B1
:200177007EB87F0BEE24FFFCEF34FFFD8C068D07EC4D70F0E58C30E7FB7597012275A8B13D
:20019700221200F712012B12013212013912014612014D12015412015B1201711201942273
:2001B700D2A3A20292A0A202B392A1A20192A200000000D2A4000000000000000075840FFE
:2001D70085C88275840000000000C2A400000000000000000000000022AF82C201A204928C
:2001F70002C0071201B7E582D00720E7EEC2A3A20492A0A204B392A1A20392A275840F8FE9
:20021700C875840000000000D2A4000000000000000000000000C2A475840F75C8FF7584ED
:2002370000D2A300000000000000000000000022C2A4D2A5D2A0D2A175840F75C8FF758411
:20025700007F00BF0200504EEF24FF9205C201A2059202C0071201B7E582D00720E4E9C284
:2002770003A205920475823FC0071201F0C203A20592047582401201F0C203A20592047574
:2002970082B81201F0C203A20592047582C01201F0D0070F80AD22AF8253073F74404FF557
:2002B70082C203A20692041201F022AF8253070774B84FF582C203A20792041201F0227F51
:2002D70000A20892078F82C0071202C2A20892067582001202AED0077E00D203A2089204B1
:2002F700758200C007C0061201F0D006D0070EBE400040E60FBF080040C722AF82BF200072
:20031700400CEF24804007EF24E0F582800BBFB005758260800375820022120312E5827541
:20033700F005A424CAFE741035F0FF8E828F83E493FDD203A20992048D82C007C00612011E
:20035700F0D006D0078E828F83A3E493FDD203A20992048D82C007C0061201F0D006D0074E
:200377008E828F83A3A3E493FDD203A20992048D82C007C0061201F0D006D0078E828F8306
:20039700A3A3A3E493FDD203A20992048D82C007C0061201F0D006D0078E828F83A3A3A37C
:2003B700A3E493FFD203A20992048F821201F0D203A20992047582001201F0D203A20992C1
:2003D700047582001201F0D203A20992047582001201F022AF8275FFA5EF24F7402CEF1413
:2003F700FEC2078E82C0061202C2C2067582001202AED006D2078E821202C2D2067582008E
:200417001202AE750800C2008022BF09028003300009D2008F9910991380FB74F825089240
:200437000AA20A92098F8212033105082275840022AE82AF834389015389FDEE4F60197580
:20045700FFA5C28CC28D758A58758C9ED28C308DFD1EBEFF011F80E322AE82AF8343890286
:200477005389FEC28CC28D758AE7758CE7D28CEE4F600F75FFA5108D0280FB1EBEFF011FE8
:2004970080ED22AE82AF838E05C2A3759B0230F9FD8F9B30F9FD8D9B30F9FD85159B30F928
:2004B700FDC2FF10FF0280FBD2A322AE82AF838E05C2A3759B0330F9FD8F9B30F9FD8D9B39
:2004D70030F9FD759B0030F9FDC2FF10FF0280FBD2A3859B82227E007F007C007D007515A3
:2004F700AA8C828D83C007C006C005C00412049AD004D0058C828D83C005C0041204C2AB84
:2005170082D004D005D006D007BBAA02801AC006C00774AAC0E07412C0E0120AE5E58124EF
:20053700FCF581758200802EC005C004C004C00574BBC0E07412C0E0120AE5E58124FCF50A
:2005570081D004D0050CBC00010D8C068D0774E02D508B758201227E037F00EE4F601FC26A
:20057700A79005DCC007C006120470D2A79005DC120470D006D0071EBEFF011F80DD222082
:20059700B005758200803B20B105758201803320B205758202802B20B3057582038023204C
:2005B700B405758204801B20B505758264801320B605758265800B20B7057582FF80037581
:2005D70082FF22AE907F00EEF4FEEFF4FFBE0105BF00028038BE0205BF00028034BE0405A4
:2005F700BF00028030BE0805BF0002802CBE1005BF00028028BE2005BF00028024BE4005B4
:20061700BF00028020BE8025BF0022801C7F00801E7F01801A7F0280167F0380127F04801D
:200637000E7F05800A7F0680067F0780027FFF8F8222AE82AF83D297D287C208C007C00648
:200657001202D6D2081202D6C2077582001202C2D2077582001202C2D006D007EF20E7777F
:2006770075153C7516008E828F83C007C00612108EAC82AD83D006D00775153C7516008EC9
:20069700828F83C007C006C005C004121058AA82AB83C003C00274C6C0E07412C0E0120A24
:2006B700E515811581D002D003D004D005C002C003C004C00574D6C0E07412C0E0120AE5A5
:2006D700E58124FAF581900064120448D006D0071EBEFF011F8085C297C28712056E74E28D
:2006F700C0E07412C0E0120AE51581158122AE82AF83BEFF06BFFF0312071322C2081202BC
:20071700D6D2081202D6C2077582001202C2D2077582001202C2E4C0E0C0E0C0E0C0E0C0C8
:20073700E0C0E0C0E0C0E074EBC0E07412C0E0120AE5E58124F6F5811205DAE58275F00AFF
:20075700A4FEAFF08E828F83C007C006120705D006D007C007C006E4C0E0C0E0C0E0C0E0D6
:20077700C0E0C0E0C006C00774EBC0E07412C0E0120AE5E58124F6F5811205DAAC827D00DD
:200797008D83C005C004120705D004D005D006D007C007C006C005C004E4C0E0C0E0C0E05B
:2007B700C0E0C004C005C006C00774EBC0E07412C0E0120AE5E58124F6F5811205DAE582F8
:2007D70075F00AA4FAABF08A828B83C003C002120705D002D003D004D005D006D007C3746B
:2007F700329A74808BF063F08095F050047A327B00C007C006C005C004C003C002E4C0E0B5
:20081700C0E0C002C003C004C005C006C00774EBC0E07412C0E0120AE5E58124F6F5811258
:2008370005DAA882790088828983C001C000120705D000D001D002D003D004D005D006D0D5
:2008570007C007C006C005C004C003C002C001C000C000C001C002C003C004C005C006C049
:200877000774EBC0E07412C0E0120AE5E58124F6F581D000D001D002D003D004D005D00679
:20089700D007EC2EF515ED3FF51690003CC003C002C001C000120FA9AE82AF83D000D00170
:2008B700D002D003E82AFAE93BFBEA2EF582EB3FF58322AE0B7F00C208C007C0061202D685
:2008D700D2081202D6C2077582001202C2D2077582001202C2D006D007C007C006C006C041
:2008F7000774FCC0E07412C0E0120AE5E58124FCF581D006D0078E828F8322C2081202D602
:20091700D2081202D6C2077582001202C2D2077582001202C27406C0E07413C0E0120AE57E
:20093700158115817414C0E07413C0E0120AE5158115817424C0E07413C0E0120AE5158102
:2009570015817431C0E07413C0E0120AE5158115817E007F00BE640BBF0008BE6505BF0079
:2009770002800B1205DAAD828D067F0080E7C007C006743FC0E07413C0E0120AE515811587
:2009970081D006D007E4BE6504BF000104FDE4BE6404BF000104FFEF600812071312064995
:2009B7008009ED60F21208CA12064912091222309807D20B85990DC29832C023C0E0C0F02E
:2009D700C082C083C007C006C005C004C003C002C001C000C0D075D0001205DAAF8274FFF5
:2009F700B50C09BFFF0280048F0B800C74FFB50C028005BFFF028F0B8F0CC2CFD0D0D000FB
:200A1700D001D002D003D004D005D006D007D083D082D0F0D0E0D0233253C0BF43C040C2E2
:200A3700CF32C2081202D6D2081202D6C2077582001202C2D2077582001202C2221201981D
:200A5700120444120247120A39E4C0E0C0E0744FC0E07413C0E0120AE5E58124FCF581903A
:200A770000011204C2AE827F0074FFB50B028037850B15900001C007C00612049AD006D0D2
:200A970007C006C0077454C0E07413C0E0120AE5E58124FCF5817459C0E07413C0E0120A6F
:200AB700E51581158180B8C006C0077454C0E07413C0E0120AE5E58124FCF581745FC0E04A
:0E0AD7007413C0E0120AE51581158180922289
:2010CA00000000000000005F00000007000700147F147F14242A7F2A1223130864623649D3
:2010EA005522500005030000001C2241000041221C00082A1C2A0808083E080800503000BB
:20110A00000808080808003030000020100804023E5149453E00427F4000426151494621FF
:20112A0041454B311814127F1027454545393C4A49493001710905033649494936064949FD
:20114A00291E00363600000056360000000814224114141414144122140800020151090681
:20116A00324979413E7E1111117E7F494949363E414141227F4141221C7F494949417F09AE
:20118A000901013E414151327F0808087F00417F41002040413F017F081422417F404040C2
:2011AA00407F0204027F7F0408107F3E4141413E7F090909063E4151215E7F091929464641
:2011CA004949493101017F01013F4040403F1F2040201F7F2018207F6314081463030478AF
:2011EA000403615149454300007F4141020408102041417F000004020102044040404040CE
:20120A00000102040020545454787F484444383844444420384444487F3854545418087E25
:20122A00090102081454543C7F0804047800447D40002040443D00007F10284400417F40B4
:20124A00007C041804787C0804047838444444387C14141408081414187C7C0804040848D0
:20126A0054545420043F4440203C4040207C1C2040201C3C4030403C44281028440C505095
:20128A00503C4464544C44000836410000007F0000004136080008082A1C08081C2A0808F3
:2012AA0002204552524F3A206D656D3D2530356400022069203D2025303564000120537428
:2012CA006172742054696D65722E2E000220253032643A2530326400032050726F6E746F69
:2012EA00000220543A2025642025642025642025640054656D706F2025643A0001205365CF
:20130A006C6563696F6E65206F0002207469706F20656E74726164613A00042061202D204C
:20132A004D616E75616C00052062202D204469676974616C0006205475646F2070726F6EF2
:20134A00746F21210001202564000320256400072046494D00072054454353204F50454E5D
:01136A000082
:200AE500C014858114E51424FDF8868318868218E493A3B42577C20CC20DC20EC20FC21036
:200B0500C211790E7700C212E493A324C64017240A50157005B50E02D211D210FAE775F0F8
:200B25000AA42AF780E2240A2430B46C04D20C80D7B46804D20D80D0B47303020B7DB46489
:200B450006120E57020BD9B47506120E57020BF9B4630518E6188017B47803020BB8B466AA
:200B650003020D0DB42E06790F7700809B6006120F49020AF5020F63C083C08286F0188671
:200B85008318868218301019C211C082C08312103C6007A3150EE50E70F4120F34D083D08A
:200BA5008212103C6006A3120F4980F5D082D083020AF5120BD0200D0C120BD0300C06125B
:200BC5000BD0120BD0120F5B020AF5E6120F39E618020F3AED30E71CD20FE9F42401F92026
:200BE5000D12EAF43400FA300C0AEBF43400FBECF43400FC200D10300C08EB7024EC7021E4
:200C0500C20CEA701CD20DE97017201214301009E50E6005150E120F347430120F49020AC3
:200C2500F5C082C083120E71301060790A300C1DEB54F0703619EB540F703019EA54F07095
:200C45002A19EA540F702419EF54F0701E7905200D0BEF540F701419EE54F0700E7903EED2
:200C6500540F700719ED54F0700119E50EA20F994019F50EC003C002C007C006C005120F30
:200C850034D005D006D007D002D003300F19C003C002C007C006C005742D120F49D005D015
:200CA50006D007D002D003200D40300C2CC005C006C0078A82EBF583120F39E583120F3AFA
:200CC500E582120F39E582120F3AD0E0F582120F39E582D083D08280058D828E83EF120F4A
:200CE5003AE583120F39E58380038D82EE120F3AE582120F39E582120F3A120F5BD083D08E
:200D05008230120122020AF530100EE50ED3950FF50E5028750E008023E6547FFA18860339
:200D250008AE82AF839015377D07E4932BA3E4933A5003A3DDF48D0F8E828F83C000120E89
:200D450039C082C083EFB47E02801940112482FDC3EA33FAEB33FBEC33FCDDF48006F424A3
:200D65007F120F6675F01BE4F8FFFEFD9014CBE933F9EA33FAEB33FBEC33FC5017E4932D38
:200D8500D4FD7401933ED4FE7402933FD4FF74039338D4F8A3A3A3A3D5F0D4E47C50FBFA72
:200DA500F9E50F232354FC8883120F66ED29D4F513EE3AD4F512EF3BD4F511E5833CD4F5B3
:200DC5001092D5D083D082D000120E39C000C3749E9F5005D000020B0DC082120F66D0823B
:200DE50030D50FE92401F9E43AFAE43BFBE43CFC40E2D212120BF920100CE50F6008120EB1
:200E0500297003D50FF4E50F6015742E120F497800D20E08E8120E29120F3AE8B50FF4D088
:200E250000020AF514C31392D52410F9E720D501C4540F22E618F9E618FC33E933920FFF28
:200E45006003430480E618FBE618FA7900C20DD20C22E6F9FD18200D12AA01E6F918300C19
:200E65000AAC02AB01E6FA18E6F91822E975F06484FE740AC5F084C445F0FD300D0122EACD
:200E8500540FF990136B932DD4FDE94410933ED4FEEAC4540FF990138B932DD4FDE944106C
:200EA500933ED4FEE94420933400D4FF200C0122EB540FF99013BB932DD4FDE94410933E10
:200EC500D4FEE94420933FD4FFE43400FAEBC4540FF99013EB932DD4FDE94410933ED4FE2D
:200EE500E94420933FD4FFE94430933AD4FAEC540FF990142B7B00120F07ECC4540FF990AD
:200F0500147B932DD4FDE94410933ED4FEE94420933FD4FFE94430933AD4FAE94440933BA7
:200F2500D4FB2274203011027430120F49150EE50E70F022C4540F7003300E19D20E2490B9
:200F4500D43440D4C083C082C000F5821203EBD000D082D08322200EFC7430020F49D01411
:010F65002269
:20136B0000561268248036924804601672288440000205071012151720232528303335384A
:20138B000096928884807672686460565248444000408122630445862768095091327314BF
:2013AB0000000001010202020303040404050506003672084480165288246096326804409C
:2013CB000055106621763287429853086419753000061319263239455258657278859198E1
:2013EB00007652280480563208846036128864400085715743281400867157432914008666
:20140B000004091419242934384348535863687200010203040506070809101112131415BF
:20142B000016324864809612284460769208244000724416886032057749219365381082B7
:20144B000077553310886644219977543210886500163350678300173450678401183451E5
:20146B000000000000000101010101010202020200561268248036924804601672288440F7
:20148B00005409631872278136914500540963180043873074176104489135792266095316
:2014AB00006836057342107947158452218958260002050810131618212426293234374015
:2014CB000000005000000025000050120000250600501203002556015012780025063900E0
:2014EB00125319005676090028880400144402000722010004610000523000002615000034
:20150B00630700008103000091010000950000004800000024000000120000000600000027
:1A152B000300000001000000010000007DC5DDC334C2E0BE38BD86BBE4B958
:0600B800E478FFF6D8FD1C
:200F66006040F82582500274FFF582E824F8501ECCCBCAF9E4CC24F85014CBCAF9E4CB2493
:200F8600F8500BCAF9E4CA24F8500379002224086010F8C3EC13FCEB13FBEA13FAE913F946
:030FA600D8F1225D
:200096007900E94400601B7A00901545780175A200E493F2A308B8000205A2D9F4DAF275B2
:0200B600A2FFA7
:1D0FA900E5828515F0A4C582C0F08516F0A4D0F025F0C5838515F0A42583F58322E3
:200FC600E515451660467A01E51525E0F515E516334012F516E5829515E583951640030A90
:200FE60080E6C3E51613F516E51513F515C3E5829515F5F0E58395164005F58385F082C34F
:0D100600E51613F516E51513F515DAE122D0
:2000BE007800E84400600A790175A200E4F309D8FC7800E84400600C7900900001E4F0A33E
:0400DE00D8FCD9FA77
:201013007A10E4FBFCE58225E0F582E58333F583EB33FBEC33FCEB9515F5F0EC95164006D7
:09103300FCABF0438201DADD227E
:0D0089007581231210C6E582600302008617
:1C103C0020F71430F6148883A88220F507E6A88375830022E280F7E49322E022C3
:20105800C2D5E58330E70DD2D5E4C39582F582E49583F583E51630E70BE4C39515F515E4A9
:161078009516F516120FC630D50BE4C39582F582E49583F58322EA
:20108E00C2D5E58330E70DD2D5E4C39582F582E49583F583E51630E70DB2D5E4C39515F5E3
:1810AE0015E49516F51612101330D50BE4C39582F582E49583F583226B
:0410C600758200220D
:00000001FF
